:0400000002006B325D
:01000B0032C2
:0100130032BA
:01001B0032B2
:0100230032AA
:01002B0032A2
:01003300329A
:01003B003292
:01004300328A
:01004B003282
:01005300327A
:01005B003272
:030063000201A5F2
:0300C400020066D1
:030066000200C7CE
:2000C70075900675E61075A88075ABFF120118908033E4F0A3F0A3F0908036F07582E2125E
:2000E7000865908033E4F0A3F0A3F0908036F07582E112086575ABFF75ACFF75AD087EE8F3
:110107007F03000000001EBEFF011FEE4F70F380E466
:06173C0000780074AA0011
:2001180090800AE4F075A04090C7D6E0FF43070890C7D6EFF07E507FC3000000001EBEFF2F
:20013800011FEE4F70F390C7D6E054F7F012015290800AE060FA7582012290C7AE7411F052
:2001580090C7ACE4F090C7AD7402F075B81090C7A9741FF090C7AAF090C7DE7402F090C7A3
:20017800DFF090C7E0E4F090C7E1F090C7817420F090C78223F090C7887410F090C78923C7
:20019800F090C78A23F090C7C774FFF022C020C0E0C0F0C082C083C007C006C005C004C035
:2001B80003C002C001C000C0D075D00890C7A8E0FF600ABF10028016BF244D802275D0003E
:2001D8001203F275D00890C7AB7401F0803A75D00012015275D00890C7AB7410F0802990EC
:2001F800C640E0FF9080457441F074C6A3F0E4A3F08F8275D000120A0D75D00890C7AA7483
:2002180002F090C7C774FFF0D0D0D000D001D002D003D004D005D006D007D083D082D0F0B2
:20023800D0E0D02032AFF0AE83E58290800BF0EEA3F0EFA3F090800BE0FDA3E0FEA3E0FF94
:200258008D828E838FF01216B5AE82AF839080A1E4F09080A27440F0E4A3F090C70275F098
:2002780000C007C0061215FED006D0078E048F05EC2CFC0C0C90C700ECF090C7017403F0C3
:2002980090800BE0FBA3E0FCA3E0FD79007A00C3E99EEA64808FF063F08095F0503BC0061E
:2002B800C0078900E828F80808E83395E0FF881074C72FF511E92BF8EA3CFE8D0788828ECB
:2002D800838FF01216CDF8851082851183F009B900010AD007D00680B690C700E090C7B504
:2002F800F0229080B7E0FEA3E0FF74062EF582E43FF583E0FD90800EF08E828F83A3A3E0C0
:20031800A3E0FE7F00BE0105BF00028014BE0205BF0002804FBE0306BF00030203C80203FC
:20033800EE9016EDE493FFC39D500590800EEFF090800EE0FFFC7E009080A474EDF07416F6
:20035800A3F07480A3F09080A7ECF0EEA3F090C70075F000C007121626D00790C7B5EFF0C4
:2003780075820122901701E493FEA3E493FF7C00C3EE9DEF9C500590800EEEF090800EE071
:20039800FFFD7E009080A474FFF07416A3F07480A3F09080A7EDF0EEA3F090C70075F0003F
:2003B800C007121626D00790C7B5EFF07582012290C7EAE075F002A424B9F582748035F09B
:2003D800F583E0FEA3E0FF7D808E828F838DF012023D758201227582002290800FE4F0908A
:2003F80080B7E0FEA3E0FF8E828F83A3E0FD606BBD05028025BD0602800DBD08028047BDDB
:200418000902801F0204B61202FAE58270030204B690800F7401F00204B690800F7401F0F6
:200438000204B68E828F83A3A3E0FCA3E0FD4C700790800AE4F0800690800A7401F090805E
:200458000F7401F0805890800AE0FD90C700F090C7B57401F090800FF080438E828F83E0B5
:20047800FEBE822690C7ECE0FF5307807E00BF800EBE000B90C7B6E0FF90C700F080149019
:20049800C7C6E0FF90C700F0800990C700E4F090C701F090C7B57402F090800F14F09080F0
:1204B8000FE0600790C7B47402F02290C7B47401F022B7
:0617420000780074E8C706
:2016ED0012010002FFFFFF4015190201010001020001090220000101008064090400000235
:20170D00FFFFFF000705810240000007050102400000040900524653746F726D00526573BD
:0F172D006561726368204669726D77617265004D
:061748001F1722172A17EB
:2004CA00AFF0AE83E58290801BF0EEA3F0EFA3F090801BE0F521A3E0F522A3E0F523908057
:2004EA001AE0FC7A007B008C007900C3EA98EB648089F063F08095F0503C8C071F8A06EF60
:20050A00C39EFF3395E0FEEF2414F524EE3480F525C004EA2521FCEB3522FDAF238C828D33
:20052A00838FF01216CD852482852583F00ABA00010BD00480B1EC24FA50067E057F0080BB
:20054A000488068907908012EEF0EFA3F09080117401F09080197420F0C29090803D7401A6
:20056A00F0758202120952908012E0FEA3E0FF4E70119080287402F09080C375F0001207DB
:20058A0080804CBE013BBF0038908014E090801EF0908014E0FD5305807C00BD8009BC009B
:2005AA00067CAA7D0080047C557D0090801FECF09080287402F090801E75F0001207808061
:2005CA000E908028EEF090801475F00012078090802CE4F090802DF07582001207F9908075
:2005EA0019E0FF90802F7408F0908030EFF0758203120826D29090C7B7E4F022AFF0AE83BF
:20060A00E582908023F0EEA3F0EFA3F0908023E0F526A3E0F527A3E0F528908020E0FC7A50
:20062A00007B008C007900C3EA98EB648089F063F08095F0503C8C071F8A06EFC39EFF33FB
:20064A0095E0FEEF2414F529EE3480F52AC004EA2526FCEB3527FDAF288C828D838FF01258
:20066A0016CD852982852A83F00ABA00010BD00480B1EC24FA50067E057F00800488068969
:20068A0007908012EEF0EFA3F09080117402F0908022E0908019F0C29090803D7401F0759C
:2006AA008202120952908012E0FEA3E0FF4E70119080287402F09080C375F00012078080FF
:2006CA004CBE013BBF0038908014E0908026F0908014E0FD5305807C00BD8009BC00067CD0
:2006EA00AA7D0080047C557D00908027ECF09080287402F090802675F000120780800E90F4
:20070A008028EEF090801475F00012078090802CE4F090802DF07582001207F9908021E0D0
:20072A00FF6005BF01328018908019E0FF90802F7426F0908030EFF0758203120826802EE9
:20074A00908019E0FF90802F7406F0908030EFF07582031208268016908019E0FF90802FA8
:20076A00740EF0908030EFF0758203120826D29090C7B7E4F022AFF0AE83E582908029F0DE
:20078A00EEA3F0EFA3F090803D7401F0758202120952908028E0FFFE1E1E90803DEEF07543
:2007AA008203C007120952D007908029E0FCA3E0FDA3E0FE908033ECF0EDA3F0EEA3F090D9
:2007CA008036EFF0758230C007120865D007908029E0FCA3E0FDA3E0FE908033ECF0EDA371
:2007EA00F0EEA3F0908036EFF075822A020865E58290802EF0E090803DF075821D12095296
:20080A0090802CE090803DF075821C12095290802DE090803DF0758201020952E5829080CF
:20082A0031F0E090803DF075820012095290802FE090803DF0758206120952908030E09096
:20084A00803DF0758211020952E582908032F0E0F5E5C2C030C0FD85E58222E582908037FE
:20086A00F0C291908037E0F582120853908033E0FDA3E0FEA3E0FF908036E0FC7A007B00E6
:20088A008C007900C3EA98EB648089F063F08095F05039C004EA2DF8EB3EF98F04888289C0
:2008AA00838CF01216CDF582C007C006C005C004C003C002120853D002D003D004D005D09D
:2008CA0006D0070ABA00010BD00480B4D29122E58290803CF0C29190803CE0F582120853CE
:2008EA00908038E0FDA3E0FEA3E0FF90803BE0FC7A007B008C007900C3EA98EB648089F018
:20090A0063F08095F0503EC004EA2DF52BEB3EF52C8F2D7582FFC007C006C005C003C00219
:20092A00120853AC82D002D003D005D006D007852B82852C83852DF0EC12169A0ABA000170
:20094A000BD00480AFD29122E58290803EF0E0FF430720908033743DF07480A3F0E4A3F02A
:20096A0090803604F08F82020865E58290803FF0E0FF9080387440F07480A3F0E4A3F090B4
:20098A00803B04F08F821208D9908040E0F58222AF83E582908043F0EFA3F0908041E0FE44
:2009AA007F00908043E0FCA3E0FD908043EF6CF0EE6DA3F0908042E0FF8F061FEE60389078
:2009CA008043E0FDA3E0FE7B0074805EFCBB0017BC8014ED2DFBEE33FC90804374216BF08C
:2009EA0074106CA3F080D2ED2DFDEE33FE908043EDF0EEA3F080C2908043E0FEA3E08E822B
:200A0A00F58322E582908048F0E0FFBFFF0E9080BFE0F8A3E0F5838882020069BFFE69900B
:200A2A0080497445F090804A746EF090804B7474F090804C7465F090804D7472F090804E25
:200A4A007420F090804F7449F09080507443F09080517450F07D007E00C3ED9409EE6480C6
:200A6A0094805016EDF5F52449F582EE3480F583E0F5F20DBD00E20E80DF9080C1E0F8A3F1
:200A8A00E0F5838882020069BF0B105394EFAD804305108D8090C7B7E4F022BF0968C290B7
:200AAA00908045E0FCA3E0FDA3E0FE8C828D838EF01216CD90803DF0758205C006C005C0E5
:200ACA0004120952D004D005D00690C7B77401F08C828D838EF01216CD90C680F09080330F
:200AEA00E4F0A3F0A3F0908036F07582E2120865908033E4F0A3F0A3F0908036F07582E119
:200B0A00120865D29022BF0A1F9080387480F074C6A3F0E4A3F090803B04F075820512081B
:200B2A00D990C7B77401F022BF062A908045E0FCA3E0FDA3E0FE74012CF9E43DFA8E038C4A
:200B4A00828D838EF01216CD90801AF089828A838BF00204CABF0D61908045E0FCA3E0FD2B
:200B6A00A3E0FE74032CF52FE43DF5308E318C828D838EF01216CDF52E74012CF8E43DFAB6
:200B8A008E0388828A838BF01216CDF874022CFCE43DFD8C828D838EF01216CDFC908020C2
:200BAA00E52EF0908021E8F0908022ECF0852F828530838531F0020606BF071790802F745F
:200BCA0090F0908030E4F075820212082690C7B7E4F022BF120280030210B690803874520E
:200BEA00F07480A3F0E4A3F090803B04F07582171208D9908052E030E0030210A99080118C
:200C0A00E0FE707B9080387452F07480A3F0E4A3F090803B04F07582601208D9908052E03A
:200C2A00FD24DF403B9080387481F074C6A3F0E4A3F090803BEDF07582611208D990C68075
:200C4A00E4F0908052E0FD0D90C7B7EDF0908033E4F0A3F0A3F0908036F07582E2020865C4
:200C6A0090C7B77401F090C68074FFF0908033E4F0A3F0A3F0908036F07582E2020865BE45
:200C8A0001028003020FF17C007D00908012E0FAA3E0FBC3EC9AED64808BF063F08095F062
:200CAA0050308A018C00E9C39814F83395E0F9E82457F52FE93480F530EC2414F582ED349D
:200CCA0080F583E0852F82853083F00CBC00BC0D80B9EA2457FAEB3480FB7D00908019E08B
:200CEA00FC908038EAF0EBA3F0EDA3F090803BECF07582611208D97C007D00BC0174BD0075
:200D0A00717A1F7B00C3E49A74808BF063F08095F0503AC004C005EA2457F8EB3480F98AAA
:200D2A00051DED3395E0FCED2457F582EC3480F583E0035480FD88828983E0C313FCED4254
:200D4A000488828983ECF0D005D004801CC004C005EA2457F8EB3480F988828983E0C31304
:200D6A0088828983F0D005D0041ABAFF011BEB30E793C004C00590805CE00303543FFB903D
:200D8A008019E07A0024F7F9EA34FFFA908012E0F8A3E0FDE829F9ED3AFA8B2F753000C364
:200DAA00E9952FEA64808530F063F08095F0D005D0045003020FDBC004C00574062BF9336F
:200DCA0095E0FAE92457F582EA3480F583E0F97A0029CA790074072BF83395E0FDE8245744
:200DEA00F582ED3480F583E07C0025E0FDEC33FCED4201EC42028A328933908055E532F09C
:200E0A00E533A3F074082BFD3395E0FCED2457F582EC3480F583E0D005D00430E70C908022
:200E2A0055E532F074014533A3F090805374FFF0A3F07406252FF9E43530FAE4F532F53336
:200E4A00C3E53299E53364808AF063F08095F0505AC004C005908053E0F8A3E0FDE532241E
:200E6A0057F582E5333480F583E0FC908041F09080427408F088828D83C005C004C003C055
:200E8A0002C00112099AE5828583F0D001D002D003D004D005908053F0E5F0A3F00532E47C
:200EAA00B532020533D005D0048095C004C005908053E0F9A3E0FA74062BF83395E0FDE8DD
:200ECA002457F582ED3480F583E0FD90804174805DF09080427401F089828A83C0031209E1
:200EEA009AAC82AD83D003EC8D04FD908055E0F9A3E0FAECB50106EDB502028007D005D06E
:200F0A0004020FDBD005D0049080A47457F07480A3F0E4A3F09080A77405F0E4A3F090C6D4
:200F2A008075F000C003121626D0037403252FF9E43530FAE4F532F533C3E53299E53364B5
:200F4A00808AF063F08095F0506DC001C002A832740528F93395E0FAE92480F52FEA34C64A
:200F6A00F530740628F93395E0FAE92457F582EA3480F583E025E0F93395E0893475350027
:200F8A00740728F83395E0FAE82457F582EA3480F583E0235401F97A00E5344201E5354297
:200FAA0002852F82853083E9F00532E4B532020533D002D001808274052B90C7B7F090804B
:200FCA0033E4F0A3F0A3F0908036F07582E20208650CBC00010DC3EC9402ED64809480500C
:200FEA0003020D050210A9BE020280030210A97D007E00908012E0FBA3E0FCC3ED9BEE6401
:20100A00808CF063F08095F0502C8B028D01EAC39914F93395E0FAE9247CF9EA3480FAEDDF
:20102A002414F582EE3480F583E089828A83F00DBD00C00E80BDEB247CFBEC3480FC7E0080
:20104A00908019E0FD908038EBF0ECA3F0EEA3F090803BEDF07582611208D9908019E0FEE3
:20106A007D00908012E0FBA3E0FCEE2BFEED3CFD9080A4747CF07480A3F0E4A3F09080A7E7
:20108A00EEF0EDA3F090C68075F000121626908012E0FDA3E0908019E02D90C7B7F02290F7
:2010AA00C7B77401F090C68074FFF022BF05028003021171908011E4F0908045E0FCA3E072
:2010CA00FDA3E0FE8C828D838EF01216CD24FA500B8C828D838EF0740512169A8C828D8389
:2010EA008EF01216CDFBBB0200500B8C828D838EF0740212169AC29074012CF9E43DFA8EF7
:20110A00038C828D838EF01216CD908028F089828A838BF012078090802C7401F090802DFF
:20112A00E4F07582061207F990802F7408F0908030E4F075820F120826D290908033E4F044
:20114A00A3F0A3F0908036F07582E2120865908033E4F0A3F0A3F0908036F07582E112086C
:20116A006590C7B7E4F022BF080280030212A4908045E0FCA3E0FDA3E0FE8C828D838EF02A
:20118A001216CD24DF500B8C828D838EF0742012169A8C828D838EF01216CDFBBB01005068
:2011AA000B8C828D838EF0740112169AC290908033E4F0A3F0A3F0908036F07582E1C006E4
:2011CA00C005C004120865D004D005D006908033E4F0A3F0A3F0908036F07582E2C006C0AC
:2011EA0005C00412086590803D7470F075820712095290803D7401F07582011209529080EA
:20120A003D7406F075821D120952D004D005D00674012CF9E43DFA8E038C828D838EF01229
:20122A0016CDFC908033E9F0EAA3F0EBA3F0908036ECF07582A8120865D29090C680E4F062
:20124A007D007E00C3ED94F4EE9401503B758207C006C005120974AC82D005D006530440BB
:20126A007B00BC400BBB000890C6807401F080187BE87C03000000001BBBFF011CEB4C70D1
:20128A00F30DBD00BF0E80BC90803DE4F075820112095290C7B77401F022BF040280030219
:2012AA00143A908045E0FCA3E0FDA3E0FE8C828D838EF01216CD24DF500B8C828D838EF019
:2012CA00742012169A8C828D838EF01216CDFBBB0100500B8C828D838EF0740112169AC276
:2012EA009074012CF9E43DFA8E0389828A838BF01216CDF989F005F07401800225E0D5F05E
:20130A00FBF974022CF8E43DFA8E0388828A838BF01216CD90803D49F0758204C006C005F6
:20132A00C004120952D004D005D006908033E4F0A3F0A3F0908036F07582E1C006C005C05D
:20134A0004120865D004D005D006908033E4F0A3F0A3F0908036F07582E2C006C005C004E6
:20136A0012086590803D7470F0758207120952758200120974E58290803D54FEF0758200E5
:20138A0012095290803D7401F0758201120952D004D005D00674032CF9E43DFA8E038C82EA
:2013AA008D838EF01216CDFC908033E9F0EAA3F0EBA3F0908036ECF07582A0120865D290F3
:2013CA007D0A7E00000000001DBDFF011EED4E70F3C290C29175E5FFC2C030C0FDD291ADEB
:2013EA00E55305107E00BD100ABE000790C680E4F08013ADE55305207E00BD20D6BE00D373
:20140A0090C6807401F090803DE4F0758201120952758200120974AE8243060190803DEEC6
:20142A00F0758200120952D29090C7B77401F022BF0C02800122908045E0FDA3E0FEA3E0B1
:20144A00FF8D828E838FF01216CDFC74012DF52FE43EF5308F31852F828530838531F01200
:20146A0016CD2CF80808EC24DF500B8D828E838FF0742012169A8D828E838FF01216CDFC7C
:20148A00BC0100500B8D828E838FF0740112169A852F828530838531F01216CD24FA500ECF
:2014AA00852F828530838531F0740512169A852F828530838531F01216CDFCBC0100500EB3
:2014CA00852F828530838531F0740112169AC290908033E4F0A3F0A3F0908036F07582E11A
:2014EA00C007C006C005C000120865D000D005D006D007908033E4F0A3F0A3F0908036F08C
:20150A007582E2C007C006C005C00012086590803D7470F075820712095275820012097445
:20152A00E58290803D54FEF0758200120952D000D005D006D007E82DF8E43EFB8F04852F84
:20154A00828530838531F01216CD908028F088828B838CF0C007C006C005120780D005D0E0
:20156A0006D00774022DFAE43EFB8F048D828E838FF01216CDFD908033EAF0EBA3F0ECA37C
:20158A00F0908036EDF07582A0120865D2907E0A7F00000000001EBEFF011FEE4F70F3C252
:2015AA0090C29175E5FFC2C030C0FDD291AEE55306207F00BE20EABF00E790C6807401F0DF
:2015CA00758200120974AF8243070190803DEFF0758200120952908012E0FEA3E0908028B4
:1415EA00EEF090801475F000120780D29090C7B77401F022F6
:06174E0000780074AA00FF
:06009A00E478FFF6D8FD3A
:2015FE00AC82AD839080A2E0FEA3E0FFBE000360121F0F9080A1E08C828D8312169AA3DE0A
:08161E00FADFF88C828D8322B3
:20162600AFF0AE83E5829080A9F0EEA3F0EFA3F09080A9E0F512A3E0F513A3E0F514AA124E
:20164600AB13AC149080A4E0F8A3E0F9A3E0FF9080A7E0F515A3E0F516AD15AE1615157429
:20166600FFB515021516ED4E6020888289838FF01216CDFEA3A882A9838A828B838CF0EEAE
:1416860012169AA3AA82AB8380CF8512828513838514F02263
:200078007918E94400601B7A0190173C78AD75A080E493F2A308B8000205A0D9F4DAF27596
:02009800A0FFC7
:1B169A0020F71130F6138883A88220F509F6A8837583002280FEF280F5F0224F
:2000A0007800E84400600A790075A080E4F309D8FC78ADE84400600C7901908000E4F0A3B2
:0400C000D8FCD9FA95
:02006900E4733E
:1816B500AA82AB831216CD6003A380F8C3E5829AF582E5839BF5832278
:0D006B007581351216E9E58260030200661A
:1C16CD0020F71430F6148883A88220F507E6A88375830022E280F7E49322E0222C
:0416E90075820022E4
:00000001FF
